{
  "abi": [
    {
      "inputs": [],
      "stateMutability": "nonpayable",
      "type": "constructor"
    },
    {
      "anonymous": false,
      "inputs": [
        {
          "indexed": true,
          "internalType": "address",
          "name": "previousOwner",
          "type": "address"
        },
        {
          "indexed": true,
          "internalType": "address",
          "name": "newOwner",
          "type": "address"
        }
      ],
      "name": "OwnershipTransferred",
      "type": "event"
    },
    {
      "inputs": [
        {
          "internalType": "uint256",
          "name": "token_id",
          "type": "uint256"
        },
        {
          "internalType": "uint256",
          "name": "image_id",
          "type": "uint256"
        },
        {
          "internalType": "uint256[4]",
          "name": "move_pointers",
          "type": "uint256[4]"
        }
      ],
      "name": "buildURI",
      "outputs": [
        {
          "internalType": "string",
          "name": "",
          "type": "string"
        }
      ],
      "stateMutability": "view",
      "type": "function"
    },
    {
      "inputs": [
        {
          "internalType": "uint256",
          "name": "",
          "type": "uint256"
        }
      ],
      "name": "image_map",
      "outputs": [
        {
          "internalType": "bytes",
          "name": "",
          "type": "bytes"
        }
      ],
      "stateMutability": "view",
      "type": "function"
    },
    {
      "inputs": [
        {
          "internalType": "uint256",
          "name": "",
          "type": "uint256"
        }
      ],
      "name": "move_map",
      "outputs": [
        {
          "internalType": "string",
          "name": "name",
          "type": "string"
        },
        {
          "internalType": "string",
          "name": "ethermon_type",
          "type": "string"
        },
        {
          "internalType": "uint8",
          "name": "damage",
          "type": "uint8"
        },
        {
          "internalType": "uint8",
          "name": "manaCost",
          "type": "uint8"
        },
        {
          "internalType": "string",
          "name": "buffType",
          "type": "string"
        },
        {
          "internalType": "uint8",
          "name": "buffAmount",
          "type": "uint8"
        },
        {
          "internalType": "string",
          "name": "debuffType",
          "type": "string"
        },
        {
          "internalType": "uint8",
          "name": "debuffAmount",
          "type": "uint8"
        },
        {
          "internalType": "uint8",
          "name": "heal",
          "type": "uint8"
        }
      ],
      "stateMutability": "view",
      "type": "function"
    },
    {
      "inputs": [
        {
          "internalType": "uint256",
          "name": "",
          "type": "uint256"
        }
      ],
      "name": "name_map",
      "outputs": [
        {
          "internalType": "string",
          "name": "",
          "type": "string"
        }
      ],
      "stateMutability": "view",
      "type": "function"
    },
    {
      "inputs": [],
      "name": "owner",
      "outputs": [
        {
          "internalType": "address",
          "name": "",
          "type": "address"
        }
      ],
      "stateMutability": "view",
      "type": "function"
    },
    {
      "inputs": [],
      "name": "renounceOwnership",
      "outputs": [],
      "stateMutability": "nonpayable",
      "type": "function"
    },
    {
      "inputs": [
        {
          "internalType": "uint256",
          "name": "layer",
          "type": "uint256"
        },
        {
          "internalType": "bytes",
          "name": "encoded_svg",
          "type": "bytes"
        }
      ],
      "name": "setImage",
      "outputs": [],
      "stateMutability": "nonpayable",
      "type": "function"
    },
    {
      "inputs": [
        {
          "internalType": "uint256",
          "name": "id",
          "type": "uint256"
        },
        {
          "components": [
            {
              "internalType": "string",
              "name": "name",
              "type": "string"
            },
            {
              "internalType": "string",
              "name": "ethermon_type",
              "type": "string"
            },
            {
              "internalType": "uint8",
              "name": "damage",
              "type": "uint8"
            },
            {
              "internalType": "uint8",
              "name": "manaCost",
              "type": "uint8"
            },
            {
              "internalType": "string",
              "name": "buffType",
              "type": "string"
            },
            {
              "internalType": "uint8",
              "name": "buffAmount",
              "type": "uint8"
            },
            {
              "internalType": "string",
              "name": "debuffType",
              "type": "string"
            },
            {
              "internalType": "uint8",
              "name": "debuffAmount",
              "type": "uint8"
            },
            {
              "internalType": "uint8",
              "name": "heal",
              "type": "uint8"
            }
          ],
          "internalType": "struct URIBuilder.Move",
          "name": "move",
          "type": "tuple"
        }
      ],
      "name": "setMove",
      "outputs": [],
      "stateMutability": "nonpayable",
      "type": "function"
    },
    {
      "inputs": [
        {
          "internalType": "address",
          "name": "newOwner",
          "type": "address"
        }
      ],
      "name": "transferOwnership",
      "outputs": [],
      "stateMutability": "nonpayable",
      "type": "function"
    }
  ],
  "bytecode": {
    "object": "0x6080806040523461005b5760008054336001600160a01b0319821681178355916001600160a01b03909116907f8be0079c531659141344cd1fd0a4f28419497f9722a3daafe3b4186f6b6457e09080a361140d90816100618239f35b600080fdfe6080604052600436101561001257600080fd5b60003560e01c80631ae8d52c14610e7d578063715018a614610e2457806375954aa314610df85780638da5cb5b14610dcf578063958c134d14610cb4578063cd99ec3114610bdf578063e9cf897814610675578063f2fde38b146105aa5763fe6445031461007f57600080fd5b346105a5576003196040368201126105a557602435906001600160401b0382116105a5576101209082360301126105a557604051906100bd82610f97565b80600401356001600160401b0381116105a5576100e09060043691840101611114565b825260248101356001600160401b0381116105a5576101059060043691840101611114565b602083015261011660448201611132565b604083015261012760648201611132565b606083015260848101356001600160401b0381116105a55761014f9060043691840101611114565b608083015261016060a48201611132565b60a083015260c48101356001600160401b0381116105a5576101ab9161018f6101049260043691840101611114565b60c08501526101a060e48201611132565b60e085015201611132565b6101008201526101b9611140565b6004356000526003602052604060002081519182516001600160401b038111610434576101f0816101ea8554610f5d565b85611198565b6020601f821160011461053f5781929394600092610534575b50508160011b916000199060031b1c19161782555b60208101519182516001600160401b0381116104345761024e816102456001850154610f5d565b60018501611198565b6020601f82116001146104c657819293946000926104bb575b50508160011b916000199060031b1c19161760018201555b60028101906102b860ff6040850151169260ff19938482541617815560ff60608601511661ff0082549160081b169061ff001916179055565b6003810160808401518051906001600160401b0382116104345781906102e8826102e28654610f5d565b86611198565b602090601f83116001146104555760009261044a575b50508160011b916000199060031b1c19161790555b6004810160ff60a085015116838254161790556005810160c08401518051906001600160401b0382116104345761034e826101ea8554610f5d565b602090601f83116001146103bf579361010093836103b2989460069460ff986000926103b4575b50508160011b916000199060031b1c19161790555b01938360e0830151169085541617845501511661ff0082549160081b169061ff001916179055565b005b015190503880610375565b90601f198316918460005260206000209260005b81811061041c57508460069460ff989461010098946103b29c9860019510610403575b505050811b01905561038a565b015160001960f88460031b161c191690553880806103f6565b929360206001819287860151815501950193016103d3565b634e487b7160e01b600052604160045260246000fd5b0151905038806102fe565b6000858152602081209350601f198516905b8181106104a3575090846001959493921061048a575b505050811b019055610313565b015160001960f88460031b161c1916905538808061047d565b92936020600181928786015181550195019301610467565b015190503880610267565b6001830160005260206000209060005b601f198416811061051c5750600193949583601f19811610610503575b505050811b01600182015561027f565b015160001960f88460031b161c191690553880806104f3565b9091602060018192858a0151815501930191016104d6565b015190503880610209565b601f198216908460005260206000209160005b81811061058d57509583600195969710610574575b505050811b01825561021e565b015160001960f88460031b161c19169055388080610567565b9192602060018192868b015181550194019201610552565b600080fd5b346105a55760203660031901126105a5576004356001600160a01b03818116918290036105a5576105d9611140565b811561062157600054826bffffffffffffffffffffffff60a01b821617600055167f8be0079c531659141344cd1fd0a4f28419497f9722a3daafe3b4186f6b6457e0600080a3005b60405162461bcd60e51b815260206004820152602660248201527f4f776e61626c653a206e6577206f776e657220697320746865207a65726f206160448201526564647265737360d01b6064820152608490fd5b346105a55760c03660031901126105a55760243536606312156105a55760405190608082018281106001600160401b038211176104345760405260c4823682116105a5576044905b828210610bcf578461071f6107c76012878060005260026020526107a06040600020916106eb60043561126f565b906000526001602052604a604060002091604051978895693d913730b6b2911d101160b11b6020880152602a8701906111ec565b61202360f01b815261073b82518093602060028501910161107a565b017f222c226465736372697074696f6e223a2022416e2045746865726d6f6e204e4660028201527f54222c2022696d616765223a2022646174613a696d6167652f7376672b786d6c6022820152670ed8985cd94d8d0b60c21b604282015201906111ec565b71222c202261747472696275746573223a205b60701b815203600d19810184520182610fb3565b60005b60048110610826576108228261080e6022604051836107f382955180926020808601910161107a565b8101615d7d60f01b6020820152036002810184520182610fb3565b60405191829160208352602083019061109d565b0390f35b8060051b83015160005260036020526040600020916040519261084884610f97565b61085181610fd4565b845261085f60018201610fd4565b6020850152600281015460ff8116604086015260081c60ff1660608501526003810161088a90610fd4565b6080850152600481015460ff1660a08501526108a860058201610fd4565b60c08501526006015460ff811660e085015260081c60ff16610100840152602083015190835193604081015160ff166108e09061126f565b91606082015160ff166108f29061126f565b9060808301519060a084015160ff1661090a9061126f565b60c08501519260e086015160ff166109219061126f565b95610100015160ff166109339061126f565b966040519a8b998551958660208d0191602001916109509261107a565b607b60f81b60208c8801818101929092526e113a3930b4ba2fba3cb832911d101160891b6021830152825160309890939092610992928592918b01910161107a565b8b0101946201116160ed1b9586809282015269113b30b63ab2911d101160b11b6033820152825190603d938285830191602001916109cf9261107a565b0191820152690113230b6b0b3b2911d160b51b60408201528151916109fd908390604a84019060200161107a565b01908361016160f51b96878481604a819701526b01136b0b730a1b7b9ba111d160a51b604c820152825190605893828583019160200191610a3d9261107a565b01918201526c11313ab3332a3cb832911d101160991b605a820152825190606793828583019160200191610a709261107a565b01918201526d011313ab33320b6b7bab73a111d160951b606a820152825190607893828583019160200191610aa49261107a565b01918201526e113232b13ab3332a3cb832911d101160891b607a820152825190608993828583019160200191610ad99261107a565b01918201526f0113232b13ab33320b6b7bab73a111d160851b608c820152825190609c93828583019160200191610b0f9261107a565b0191820152670113432b0b6111d160c51b609e82015281519060a692828483019160200191610b3d9261107a565b01908101607d60f81b90520360878101835260a701610b5c9083610fb3565b8160038203610b8e575b506000198114610b78576001016107ca565b634e487b7160e01b600052601160045260246000fd5b909150610bc8602160405183610bae82955180926020808601910161107a565b8101600b60fa1b6020820152036001810184520182610fb3565b9083610b66565b81358152602091820191016106bd565b346105a5576020806003193601126105a55760043560005260019081815260406000206040518093600090835493610c1685610f5d565b94858552868382169182600014610c92575050600114610c53575b5050610c3f92500383610fb3565b61082260405192828493845283019061109d565b85925060005281600020906000915b858310610c7a575050610c3f93508201018580610c31565b80548389018501528794508693909201918101610c62565b9250935050610c3f94915060ff191682840152151560051b8201018580610c31565b346105a55760403660031901126105a5576001600160401b036024358181116105a557366023820112156105a557610cf69036906024816004013591016110dd565b90610cff611140565b6004356000526001906020828152604060002093805192831161043457610d3083610d2a8754610f5d565b87611198565b81601f8411600114610d6c5750928293918392600094610d61575b50501b916000199060031b1c1916179055600080f35b015192508580610d4b565b919083601f1981168760005284600020946000905b88838310610db55750505010610d9c575b505050811b019055005b015160001960f88460031b161c19169055838080610d92565b858701518855909601959485019487935090810190610d81565b346105a55760003660031901126105a5576000546040516001600160a01b039091168152602090f35b346105a55760203660031901126105a557600435600052600260205261082261080e6040600020610fd4565b346105a55760003660031901126105a557610e3d611140565b600080546001600160a01b0319811682556001600160a01b03167f8be0079c531659141344cd1fd0a4f28419497f9722a3daafe3b4186f6b6457e08280a3005b346105a55760203660031901126105a5576004356000526003602052610f066040600020610eaa81610fd4565b9060ff610f46610ebc60018401610fd4565b92600281015490610f33610ed260038301610fd4565b92856004840154169386610f146006610eed60058801610fd4565b960154996040519c8d9c8d61012090818152019061109d565b8c810360208e01529061109d565b9281811660408c015260081c1660608a015288820360808a015261109d565b9160a087015285820360c087015261109d565b9181811660e085015260081c166101008301520390f35b90600182811c92168015610f8d575b6020831014610f7757565b634e487b7160e01b600052602260045260246000fd5b91607f1691610f6c565b61012081019081106001600160401b0382111761043457604052565b90601f801991011681019081106001600160401b0382111761043457604052565b9060405191826000825492610fe884610f5d565b9081845260019485811690816000146110575750600114611014575b505061101292500383610fb3565b565b9093915060005260209081600020936000915b81831061103f57505061101293508201013880611004565b85548884018501529485019487945091830191611027565b91505061101294506020925060ff191682840152151560051b8201013880611004565b60005b83811061108d5750506000910152565b818101518382015260200161107d565b906020916110b68151809281855285808601910161107a565b601f01601f1916010190565b6001600160401b03811161043457601f01601f191660200190565b9291926110e9826110c2565b916110f76040519384610fb3565b8294818452818301116105a5578281602093846000960137010152565b9080601f830112156105a55781602061112f933591016110dd565b90565b359060ff821682036105a557565b6000546001600160a01b0316330361115457565b606460405162461bcd60e51b815260206004820152602060248201527f4f776e61626c653a2063616c6c6572206973206e6f7420746865206f776e65726044820152fd5b90601f81116111a657505050565b600091825260208220906020601f850160051c830194106111e2575b601f0160051c01915b8281106111d757505050565b8181556001016111cb565b90925082906111c2565b6000929181546111fb81610f5d565b926001918083169081156112545750600114611218575b50505050565b90919293945060005260209081600020906000915b8583106112435750505050019038808080611212565b80548584015291830191810161122d565b60ff1916845250505081151590910201915038808080611212565b806000917a184f03e93ff9f4daa797ed6e38ed64bf6a1f010000000000000000808210156113c9575b506d04ee2d6d415b85acef8100000000808310156113ba575b50662386f26fc10000808310156113ab575b506305f5e1008083101561139c575b506127108083101561138d575b50606482101561137d575b600a80921015611373575b60019081602181860195611308876110c2565b966113166040519889610fb3565b808852611325601f19916110c2565b01366020890137860101905b61133d575b5050505090565b600019019083906f181899199a1a9b1b9c1cb0b131b232b360811b8282061a83530491821561136e57919082611331565b611336565b91600101916112f5565b91906064600291049101916112ea565b600491939204910191386112df565b600891939204910191386112d2565b601091939204910191386112c3565b602091939204910191386112b1565b60409350810491503861129856fea264697066735822122022c364d12a1df6ad20199d08f843237380ba1fb36b0578dc32c286be101362f164736f6c63430008130033",
    "linkReferences": {}
  },
  "methodIdentifiers": {
    "buildURI(uint256,uint256,uint256[4])": "e9cf8978",
    "image_map(uint256)": "cd99ec31",
    "move_map(uint256)": "1ae8d52c",
    "name_map(uint256)": "75954aa3",
    "owner()": "8da5cb5b",
    "renounceOwnership()": "715018a6",
    "setImage(uint256,bytes)": "958c134d",
    "setMove(uint256,(string,string,uint8,uint8,string,uint8,string,uint8,uint8))": "fe644503",
    "transferOwnership(address)": "f2fde38b"
  },
  "id": 33
}