{
  "abi": [
    {
      "inputs": [],
      "stateMutability": "nonpayable",
      "type": "constructor"
    },
    {
      "anonymous": false,
      "inputs": [
        {
          "indexed": true,
          "internalType": "address",
          "name": "previousOwner",
          "type": "address"
        },
        {
          "indexed": true,
          "internalType": "address",
          "name": "newOwner",
          "type": "address"
        }
      ],
      "name": "OwnershipTransferred",
      "type": "event"
    },
    {
      "inputs": [
        {
          "internalType": "uint256",
          "name": "token_id",
          "type": "uint256"
        },
        {
          "internalType": "uint256",
          "name": "image_id",
          "type": "uint256"
        },
        {
          "internalType": "uint256[4]",
          "name": "move_pointers",
          "type": "uint256[4]"
        }
      ],
      "name": "buildURI",
      "outputs": [
        {
          "internalType": "string",
          "name": "",
          "type": "string"
        }
      ],
      "stateMutability": "view",
      "type": "function"
    },
    {
      "inputs": [
        {
          "internalType": "uint256",
          "name": "",
          "type": "uint256"
        }
      ],
      "name": "image_map",
      "outputs": [
        {
          "internalType": "bytes",
          "name": "",
          "type": "bytes"
        }
      ],
      "stateMutability": "view",
      "type": "function"
    },
    {
      "inputs": [
        {
          "internalType": "uint256",
          "name": "",
          "type": "uint256"
        }
      ],
      "name": "move_map",
      "outputs": [
        {
          "internalType": "string",
          "name": "name",
          "type": "string"
        },
        {
          "internalType": "string",
          "name": "ethermon_type",
          "type": "string"
        },
        {
          "internalType": "uint8",
          "name": "damage",
          "type": "uint8"
        },
        {
          "internalType": "uint8",
          "name": "manaCost",
          "type": "uint8"
        },
        {
          "internalType": "string",
          "name": "buffType",
          "type": "string"
        },
        {
          "internalType": "uint8",
          "name": "buffAmount",
          "type": "uint8"
        },
        {
          "internalType": "string",
          "name": "debuffType",
          "type": "string"
        },
        {
          "internalType": "uint8",
          "name": "debuffAmount",
          "type": "uint8"
        },
        {
          "internalType": "uint8",
          "name": "heal",
          "type": "uint8"
        }
      ],
      "stateMutability": "view",
      "type": "function"
    },
    {
      "inputs": [
        {
          "internalType": "uint256",
          "name": "",
          "type": "uint256"
        }
      ],
      "name": "name_map",
      "outputs": [
        {
          "internalType": "string",
          "name": "",
          "type": "string"
        }
      ],
      "stateMutability": "view",
      "type": "function"
    },
    {
      "inputs": [],
      "name": "owner",
      "outputs": [
        {
          "internalType": "address",
          "name": "",
          "type": "address"
        }
      ],
      "stateMutability": "view",
      "type": "function"
    },
    {
      "inputs": [],
      "name": "renounceOwnership",
      "outputs": [],
      "stateMutability": "nonpayable",
      "type": "function"
    },
    {
      "inputs": [
        {
          "internalType": "uint256",
          "name": "id",
          "type": "uint256"
        },
        {
          "internalType": "bytes",
          "name": "encoded_svg",
          "type": "bytes"
        },
        {
          "internalType": "string",
          "name": "name",
          "type": "string"
        },
        {
          "internalType": "string",
          "name": "_type",
          "type": "string"
        }
      ],
      "name": "setImage",
      "outputs": [],
      "stateMutability": "nonpayable",
      "type": "function"
    },
    {
      "inputs": [
        {
          "internalType": "uint256",
          "name": "id",
          "type": "uint256"
        },
        {
          "components": [
            {
              "internalType": "string",
              "name": "name",
              "type": "string"
            },
            {
              "internalType": "string",
              "name": "ethermon_type",
              "type": "string"
            },
            {
              "internalType": "uint8",
              "name": "damage",
              "type": "uint8"
            },
            {
              "internalType": "uint8",
              "name": "manaCost",
              "type": "uint8"
            },
            {
              "internalType": "string",
              "name": "buffType",
              "type": "string"
            },
            {
              "internalType": "uint8",
              "name": "buffAmount",
              "type": "uint8"
            },
            {
              "internalType": "string",
              "name": "debuffType",
              "type": "string"
            },
            {
              "internalType": "uint8",
              "name": "debuffAmount",
              "type": "uint8"
            },
            {
              "internalType": "uint8",
              "name": "heal",
              "type": "uint8"
            }
          ],
          "internalType": "struct URIBuilder.Move",
          "name": "move",
          "type": "tuple"
        }
      ],
      "name": "setMove",
      "outputs": [],
      "stateMutability": "nonpayable",
      "type": "function"
    },
    {
      "inputs": [
        {
          "internalType": "uint256",
          "name": "new_total",
          "type": "uint256"
        }
      ],
      "name": "setTotalImages",
      "outputs": [],
      "stateMutability": "nonpayable",
      "type": "function"
    },
    {
      "inputs": [],
      "name": "total_images",
      "outputs": [
        {
          "internalType": "uint256",
          "name": "",
          "type": "uint256"
        }
      ],
      "stateMutability": "view",
      "type": "function"
    },
    {
      "inputs": [
        {
          "internalType": "address",
          "name": "newOwner",
          "type": "address"
        }
      ],
      "name": "transferOwnership",
      "outputs": [],
      "stateMutability": "nonpayable",
      "type": "function"
    },
    {
      "inputs": [
        {
          "internalType": "uint256",
          "name": "",
          "type": "uint256"
        }
      ],
      "name": "type_map",
      "outputs": [
        {
          "internalType": "string",
          "name": "",
          "type": "string"
        }
      ],
      "stateMutability": "view",
      "type": "function"
    }
  ],
  "bytecode": {
    "object": "0x6080806040523461005b5760008054336001600160a01b0319821681178355916001600160a01b03909116907f8be0079c531659141344cd1fd0a4f28419497f9722a3daafe3b4186f6b6457e09080a361167790816100618239f35b600080fdfe6080604052600436101561001257600080fd5b60003560e01c80631ae8d52c146110e45780632d3750f8146110b85780635365855b1461109a5780636da39c4114610dd3578063715018a614610d7a57806375954aa314610d4e578063865303e214610d2d5780638da5cb5b14610d04578063cd99ec3114610c2f578063e9cf89781461067a578063f2fde38b146105af5763fe644503146100a057600080fd5b346105aa576003196040368201126105aa5760249081359067ffffffffffffffff908183116105aa576101209083360301126105aa576040516100e2816111fe565b82600401358281116105aa576100fe906004369186010161137e565b8152838301358281116105aa5761011b906004369186010161137e565b936020928383019586526101316044860161139c565b604084019081526101446064870161139c565b946060850195865260848701358381116105aa5761016890600436918a010161137e565b936080860194855261017c60a4890161139c565b60a0870190815260c48901358581116105aa5761019f90600436918c010161137e565b9560c088019687526101c76101046101b960e48d0161139c565b9b60e08b019c8d520161139c565b9a61010089019b8c526101d86113aa565b600435600052600485526040600020985180519088821161059557819061020a828d61020481546111c4565b90611402565b8790601f831160011461053057600092610525575b50508160011b916000199060031b1c19161789555b519485519587871161049c57600196878b019161025b8261025585546111c4565b85611402565b8790601f83116001146104bc576102b894939291600091836104b1575b5050600019600383901b1c191690891b1790555b60ff8060028c019251169b81199c8d845416178355511661ff0082549160081b169061ff001916179055565b518051600389019187821161049c5781906102dd826102d786546111c4565b86611402565b8690601f83116001146104395760009261042e575b5050600019600383901b1c191690861b1790555b60ff600488019151168882541617905560058601945190815194851161041a575061033b8461033587546111c4565b87611402565b81601f85116001146103a4575093838060ff9896956006956103979c99958b98600094610399575b50501b916000199060031b1c19161790555b0194511690845416178355511661ff0082549160081b169061ff001916179055565b005b015192503880610363565b9190601f9493941984168660005283600020936000905b828210610403575050936103979a979360ff9997938a979383600698106103ea575b505050811b019055610375565b015160001960f88460031b161c191690553880806103dd565b8088869782949787015181550196019401906103bb565b634e487b7160e01b60009081526041600452fd5b0151905038806102f2565b90889350601f1983169185600052886000209260005b8a828210610486575050841161046d575b505050811b019055610306565b015160001960f88460031b161c19169055388080610460565b8385015186558c9790950194938401930161044f565b84634e487b7160e01b60005260416004526000fd5b015190503880610278565b9392918991601f19821690846000528a6000209160005b8c82821061050f57505096836102b898106104f6575b505050811b01905561028c565b015160001960f88460031b161c191690553880806104e9565b838a015185558e969094019392830192016104d3565b01519050388061021f565b60008d81528981209350601f198516905b8a82821061057f575050908460019594939210610566575b505050811b018955610234565b015160001960f88460031b161c19169055388080610559565b6001859682939686015181550195019301610541565b85634e487b7160e01b60005260416004526000fd5b600080fd5b346105aa5760203660031901126105aa576004356001600160a01b03818116918290036105aa576105de6113aa565b811561062657600054826bffffffffffffffffffffffff60a01b821617600055167f8be0079c531659141344cd1fd0a4f28419497f9722a3daafe3b4186f6b6457e0600080a3005b60405162461bcd60e51b815260206004820152602660248201527f4f776e61626c653a206e6577206f776e657220697320746865207a65726f206160448201526564647265737360d01b6064820152608490fd5b346105aa5760c03660031901126105aa5760243536606312156105aa57604051906080820182811067ffffffffffffffff821117610c195760405260c4823682116105aa576044905b828210610c0957846107346108016012878060005260026020526107da6040600020916106f16004356114d9565b90600052600160205260146107b960406000206003602052604a6040600020946040519a8b98693d913730b6b2911d101160b11b60208b0152602a8a0190611456565b61202360f01b81526107508251809360206002850191016112e3565b7f222c226465736372697074696f6e223a2022416e2045746865726d6f6e204e46910160028101919091527f54222c2022696d616765223a2022646174613a696d6167652f7376672b786d6c6022820152670ed8985cd94d8d0b60c21b60428201520190611456565b731116101136b7b739ba32b92fba3cb832911d101160611b81520190611456565b71222c202261747472696275746573223a205b60701b815203600d1981018452018261121b565b60005b600481106108605761085c8261084860226040518361082d8295518092602080860191016112e3565b8101615d7d60f01b602082015203600281018452018261121b565b604051918291602083526020830190611306565b0390f35b8060051b830151600052600460205260406000209160405192610882846111fe565b61088b8161123d565b84526108996001820161123d565b6020850152600281015460ff8116604086015260081c60ff166060850152600381016108c49061123d565b6080850152600481015460ff1660a08501526108e26005820161123d565b60c08501526006015460ff811660e085015260081c60ff16610100840152602083015190835193604081015160ff1661091a906114d9565b91606082015160ff1661092c906114d9565b9060808301519060a084015160ff16610944906114d9565b60c08501519260e086015160ff1661095b906114d9565b95610100015160ff1661096d906114d9565b966040519a8b998551958660208d01916020019161098a926112e3565b607b60f81b60208c8801818101929092526e113a3930b4ba2fba3cb832911d101160891b60218301528251603098909390926109cc928592918b0191016112e3565b8b0101946201116160ed1b9586809282015269113b30b63ab2911d101160b11b6033820152825190603d93828583019160200191610a09926112e3565b0191820152690113230b6b0b3b2911d160b51b6040820152815191610a37908390604a8401906020016112e3565b01908361016160f51b96878481604a819701526b01136b0b730a1b7b9ba111d160a51b604c820152825190605893828583019160200191610a77926112e3565b01918201526c11313ab3332a3cb832911d101160991b605a820152825190606793828583019160200191610aaa926112e3565b01918201526d011313ab33320b6b7bab73a111d160951b606a820152825190607893828583019160200191610ade926112e3565b01918201526e113232b13ab3332a3cb832911d101160891b607a820152825190608993828583019160200191610b13926112e3565b01918201526f0113232b13ab33320b6b7bab73a111d160851b608c820152825190609c93828583019160200191610b49926112e3565b0191820152670113432b0b6111d160c51b609e82015281519060a692828483019160200191610b77926112e3565b01908101607d60f81b90520360878101835260a701610b96908361121b565b8160038203610bc8575b506000198114610bb257600101610804565b634e487b7160e01b600052601160045260246000fd5b909150610c02602160405183610be88295518092602080860191016112e3565b8101600b60fa1b602082015203600181018452018261121b565b9083610ba0565b81358152602091820191016106c3565b634e487b7160e01b600052604160045260246000fd5b346105aa576020806003193601126105aa5760043560005260019081815260406000206040518093600090835493610c66856111c4565b94858552868382169182600014610ce2575050600114610ca3575b5050610c8f9250038361121b565b61085c604051928284938452830190611306565b85925060005281600020906000915b858310610cca575050610c8f93508201018580610c81565b80548389018501528794508693909201918101610cb2565b9250935050610c8f94915060ff191682840152151560051b8201018580610c81565b346105aa5760003660031901126105aa576000546040516001600160a01b039091168152602090f35b346105aa5760203660031901126105aa57610d466113aa565b600435600555005b346105aa5760203660031901126105aa57600435600052600260205261085c610848604060002061123d565b346105aa5760003660031901126105aa57610d936113aa565b600080546001600160a01b0319811682556001600160a01b03167f8be0079c531659141344cd1fd0a4f28419497f9722a3daafe3b4186f6b6457e08280a3005b346105aa5760803660031901126105aa5760043567ffffffffffffffff6024358181116105aa57366023820112156105aa57610e19903690602481600401359101611347565b906044358181116105aa57610e3290369060040161137e565b916064358281116105aa57610e4b90369060040161137e565b93610e546113aa565b80600052600193602092858452604060002090805190868211610c19578190610e81826102d786546111c4565b8690601f83116001146110375760009261102c575b5050600019600383901b1c191690871b1790555b8160005260028352604060002090805190858211610c19578190610ed2826102d786546111c4565b8590601f8311600114610fc957600092610fbe575b5050600019600383901b1c191690861b1790555b600052600381526040600020938051928311610c1957610f1f8361033587546111c4565b81601f8411600114610f5b5750928293918392600094610f50575b50501b916000199060031b1c1916179055600080f35b015192508580610f3a565b919083601f1981168760005284600020946000905b88838310610fa45750505010610f8b575b505050811b019055005b015160001960f88460031b161c19169055838080610f81565b858701518855909601959485019487935090810190610f70565b015190508880610ee7565b90889350601f1983169185600052876000209260005b898282106110165750508411610ffd575b505050811b019055610efb565b015160001960f88460031b161c19169055888080610ff0565b8385015186558c97909501949384019301610fdf565b015190508980610e96565b90899350601f1983169185600052886000209260005b8a828210611084575050841161106b575b505050811b019055610eaa565b015160001960f88460031b161c1916905589808061105e565b8385015186558d9790950194938401930161104d565b346105aa5760003660031901126105aa576020600554604051908152f35b346105aa5760203660031901126105aa57600435600052600360205261085c610848604060002061123d565b346105aa5760203660031901126105aa57600435600052600460205261116d60406000206111118161123d565b9060ff6111ad6111236001840161123d565b9260028101549061119a6111396003830161123d565b9285600484015416938661117b60066111546005880161123d565b960154996040519c8d9c8d610120908181520190611306565b8c810360208e015290611306565b9281811660408c015260081c1660608a015288820360808a0152611306565b9160a087015285820360c0870152611306565b9181811660e085015260081c166101008301520390f35b90600182811c921680156111f4575b60208310146111de57565b634e487b7160e01b600052602260045260246000fd5b91607f16916111d3565b610120810190811067ffffffffffffffff821117610c1957604052565b90601f8019910116810190811067ffffffffffffffff821117610c1957604052565b9060405191826000825492611251846111c4565b9081845260019485811690816000146112c0575060011461127d575b505061127b9250038361121b565b565b9093915060005260209081600020936000915b8183106112a857505061127b9350820101388061126d565b85548884018501529485019487945091830191611290565b91505061127b94506020925060ff191682840152151560051b820101388061126d565b60005b8381106112f65750506000910152565b81810151838201526020016112e6565b9060209161131f815180928185528580860191016112e3565b601f01601f1916010190565b67ffffffffffffffff8111610c1957601f01601f191660200190565b9291926113538261132b565b91611361604051938461121b565b8294818452818301116105aa578281602093846000960137010152565b9080601f830112156105aa5781602061139993359101611347565b90565b359060ff821682036105aa57565b6000546001600160a01b031633036113be57565b606460405162461bcd60e51b815260206004820152602060248201527f4f776e61626c653a2063616c6c6572206973206e6f7420746865206f776e65726044820152fd5b90601f811161141057505050565b600091825260208220906020601f850160051c8301941061144c575b601f0160051c01915b82811061144157505050565b818155600101611435565b909250829061142c565b600092918154611465816111c4565b926001918083169081156114be5750600114611482575b50505050565b90919293945060005260209081600020906000915b8583106114ad575050505001903880808061147c565b805485840152918301918101611497565b60ff191684525050508115159091020191503880808061147c565b806000917a184f03e93ff9f4daa797ed6e38ed64bf6a1f01000000000000000080821015611633575b506d04ee2d6d415b85acef810000000080831015611624575b50662386f26fc1000080831015611615575b506305f5e10080831015611606575b50612710808310156115f7575b5060648210156115e7575b600a809210156115dd575b600190816021818601956115728761132b565b96611580604051988961121b565b80885261158f601f199161132b565b01366020890137860101905b6115a7575b5050505090565b600019019083906f181899199a1a9b1b9c1cb0b131b232b360811b8282061a8353049182156115d85791908261159b565b6115a0565b916001019161155f565b9190606460029104910191611554565b60049193920491019138611549565b6008919392049101913861153c565b6010919392049101913861152d565b6020919392049101913861151b565b60409350810491503861150256fea264697066735822122040b03fd8df7d281a8a45be01ba9d4416efd46bafa762741d42757996f5b514e364736f6c63430008130033",
    "linkReferences": {}
  },
  "methodIdentifiers": {
    "buildURI(uint256,uint256,uint256[4])": "e9cf8978",
    "image_map(uint256)": "cd99ec31",
    "move_map(uint256)": "1ae8d52c",
    "name_map(uint256)": "75954aa3",
    "owner()": "8da5cb5b",
    "renounceOwnership()": "715018a6",
    "setImage(uint256,bytes,string,string)": "6da39c41",
    "setMove(uint256,(string,string,uint8,uint8,string,uint8,string,uint8,uint8))": "fe644503",
    "setTotalImages(uint256)": "865303e2",
    "total_images()": "5365855b",
    "transferOwnership(address)": "f2fde38b",
    "type_map(uint256)": "2d3750f8"
  },
  "id": 33
}