{
  "abi": [
    {
      "inputs": [],
      "stateMutability": "nonpayable",
      "type": "constructor"
    },
    {
      "inputs": [],
      "name": "MintNotReady",
      "type": "error"
    },
    {
      "inputs": [],
      "name": "NonExistentTokenURI",
      "type": "error"
    },
    {
      "anonymous": false,
      "inputs": [
        {
          "indexed": true,
          "internalType": "address",
          "name": "owner",
          "type": "address"
        },
        {
          "indexed": true,
          "internalType": "address",
          "name": "approved",
          "type": "address"
        },
        {
          "indexed": true,
          "internalType": "uint256",
          "name": "tokenId",
          "type": "uint256"
        }
      ],
      "name": "Approval",
      "type": "event"
    },
    {
      "anonymous": false,
      "inputs": [
        {
          "indexed": true,
          "internalType": "address",
          "name": "owner",
          "type": "address"
        },
        {
          "indexed": true,
          "internalType": "address",
          "name": "operator",
          "type": "address"
        },
        {
          "indexed": false,
          "internalType": "bool",
          "name": "approved",
          "type": "bool"
        }
      ],
      "name": "ApprovalForAll",
      "type": "event"
    },
    {
      "anonymous": false,
      "inputs": [
        {
          "indexed": true,
          "internalType": "address",
          "name": "previousOwner",
          "type": "address"
        },
        {
          "indexed": true,
          "internalType": "address",
          "name": "newOwner",
          "type": "address"
        }
      ],
      "name": "OwnershipTransferred",
      "type": "event"
    },
    {
      "anonymous": false,
      "inputs": [
        {
          "indexed": true,
          "internalType": "address",
          "name": "from",
          "type": "address"
        },
        {
          "indexed": true,
          "internalType": "address",
          "name": "to",
          "type": "address"
        },
        {
          "indexed": true,
          "internalType": "uint256",
          "name": "tokenId",
          "type": "uint256"
        }
      ],
      "name": "Transfer",
      "type": "event"
    },
    {
      "inputs": [
        {
          "internalType": "address",
          "name": "to",
          "type": "address"
        },
        {
          "internalType": "uint256",
          "name": "tokenId",
          "type": "uint256"
        }
      ],
      "name": "approve",
      "outputs": [],
      "stateMutability": "nonpayable",
      "type": "function"
    },
    {
      "inputs": [],
      "name": "auction_house",
      "outputs": [
        {
          "internalType": "contract AuctionHouse",
          "name": "",
          "type": "address"
        }
      ],
      "stateMutability": "view",
      "type": "function"
    },
    {
      "inputs": [
        {
          "internalType": "address",
          "name": "owner",
          "type": "address"
        }
      ],
      "name": "balanceOf",
      "outputs": [
        {
          "internalType": "uint256",
          "name": "",
          "type": "uint256"
        }
      ],
      "stateMutability": "view",
      "type": "function"
    },
    {
      "inputs": [],
      "name": "distributeToTeam",
      "outputs": [],
      "stateMutability": "nonpayable",
      "type": "function"
    },
    {
      "inputs": [
        {
          "internalType": "uint256",
          "name": "tokenId",
          "type": "uint256"
        }
      ],
      "name": "getApproved",
      "outputs": [
        {
          "internalType": "address",
          "name": "",
          "type": "address"
        }
      ],
      "stateMutability": "view",
      "type": "function"
    },
    {
      "inputs": [
        {
          "internalType": "address",
          "name": "owner",
          "type": "address"
        },
        {
          "internalType": "address",
          "name": "operator",
          "type": "address"
        }
      ],
      "name": "isApprovedForAll",
      "outputs": [
        {
          "internalType": "bool",
          "name": "",
          "type": "bool"
        }
      ],
      "stateMutability": "view",
      "type": "function"
    },
    {
      "inputs": [
        {
          "internalType": "address",
          "name": "to",
          "type": "address"
        }
      ],
      "name": "mint",
      "outputs": [],
      "stateMutability": "nonpayable",
      "type": "function"
    },
    {
      "inputs": [],
      "name": "mint_ready",
      "outputs": [
        {
          "internalType": "bool",
          "name": "",
          "type": "bool"
        }
      ],
      "stateMutability": "view",
      "type": "function"
    },
    {
      "inputs": [],
      "name": "name",
      "outputs": [
        {
          "internalType": "string",
          "name": "",
          "type": "string"
        }
      ],
      "stateMutability": "view",
      "type": "function"
    },
    {
      "inputs": [],
      "name": "nextTokenId",
      "outputs": [
        {
          "internalType": "uint256",
          "name": "_value",
          "type": "uint256"
        }
      ],
      "stateMutability": "view",
      "type": "function"
    },
    {
      "inputs": [],
      "name": "owner",
      "outputs": [
        {
          "internalType": "address",
          "name": "",
          "type": "address"
        }
      ],
      "stateMutability": "view",
      "type": "function"
    },
    {
      "inputs": [
        {
          "internalType": "uint256",
          "name": "tokenId",
          "type": "uint256"
        }
      ],
      "name": "ownerOf",
      "outputs": [
        {
          "internalType": "address",
          "name": "",
          "type": "address"
        }
      ],
      "stateMutability": "view",
      "type": "function"
    },
    {
      "inputs": [],
      "name": "renounceOwnership",
      "outputs": [],
      "stateMutability": "nonpayable",
      "type": "function"
    },
    {
      "inputs": [
        {
          "internalType": "address",
          "name": "from",
          "type": "address"
        },
        {
          "internalType": "address",
          "name": "to",
          "type": "address"
        },
        {
          "internalType": "uint256",
          "name": "tokenId",
          "type": "uint256"
        }
      ],
      "name": "safeTransferFrom",
      "outputs": [],
      "stateMutability": "nonpayable",
      "type": "function"
    },
    {
      "inputs": [
        {
          "internalType": "address",
          "name": "from",
          "type": "address"
        },
        {
          "internalType": "address",
          "name": "to",
          "type": "address"
        },
        {
          "internalType": "uint256",
          "name": "tokenId",
          "type": "uint256"
        },
        {
          "internalType": "bytes",
          "name": "data",
          "type": "bytes"
        }
      ],
      "name": "safeTransferFrom",
      "outputs": [],
      "stateMutability": "nonpayable",
      "type": "function"
    },
    {
      "inputs": [
        {
          "internalType": "address",
          "name": "operator",
          "type": "address"
        },
        {
          "internalType": "bool",
          "name": "approved",
          "type": "bool"
        }
      ],
      "name": "setApprovalForAll",
      "outputs": [],
      "stateMutability": "nonpayable",
      "type": "function"
    },
    {
      "inputs": [
        {
          "internalType": "bool",
          "name": "_mint_ready",
          "type": "bool"
        }
      ],
      "name": "setMintReady",
      "outputs": [],
      "stateMutability": "nonpayable",
      "type": "function"
    },
    {
      "inputs": [
        {
          "internalType": "address",
          "name": "uri_builder_address",
          "type": "address"
        }
      ],
      "name": "setUriBuilder",
      "outputs": [],
      "stateMutability": "nonpayable",
      "type": "function"
    },
    {
      "inputs": [
        {
          "internalType": "bytes4",
          "name": "interfaceId",
          "type": "bytes4"
        }
      ],
      "name": "supportsInterface",
      "outputs": [
        {
          "internalType": "bool",
          "name": "",
          "type": "bool"
        }
      ],
      "stateMutability": "view",
      "type": "function"
    },
    {
      "inputs": [],
      "name": "symbol",
      "outputs": [
        {
          "internalType": "string",
          "name": "",
          "type": "string"
        }
      ],
      "stateMutability": "view",
      "type": "function"
    },
    {
      "inputs": [
        {
          "internalType": "uint256",
          "name": "token_id",
          "type": "uint256"
        }
      ],
      "name": "tokenURI",
      "outputs": [
        {
          "internalType": "string",
          "name": "",
          "type": "string"
        }
      ],
      "stateMutability": "view",
      "type": "function"
    },
    {
      "inputs": [
        {
          "internalType": "address",
          "name": "from",
          "type": "address"
        },
        {
          "internalType": "address",
          "name": "to",
          "type": "address"
        },
        {
          "internalType": "uint256",
          "name": "tokenId",
          "type": "uint256"
        }
      ],
      "name": "transferFrom",
      "outputs": [],
      "stateMutability": "nonpayable",
      "type": "function"
    },
    {
      "inputs": [
        {
          "internalType": "address",
          "name": "newOwner",
          "type": "address"
        }
      ],
      "name": "transferOwnership",
      "outputs": [],
      "stateMutability": "nonpayable",
      "type": "function"
    },
    {
      "inputs": [],
      "name": "uri_builder",
      "outputs": [
        {
          "internalType": "contract URIBuilder",
          "name": "",
          "type": "address"
        }
      ],
      "stateMutability": "view",
      "type": "function"
    },
    {
      "inputs": [
        {
          "internalType": "uint256",
          "name": "",
          "type": "uint256"
        }
      ],
      "name": "uri_seed_hash",
      "outputs": [
        {
          "internalType": "bytes32",
          "name": "",
          "type": "bytes32"
        }
      ],
      "stateMutability": "view",
      "type": "function"
    }
  ],
  "bytecode": {
    "object": "0x6080346200036d576001600160401b039060408181018381118382101762000357578152600b82526020916a4574684d6f6e737465727360a81b8382015281519382850185811082821117620003575783526003855262454d5360e81b84860152815181811162000357576000948554916001948584811c941680156200034c575b8385101462000338578190601f94858111620002e5575b5083908583116001146200028157899262000275575b5050600019600383901b1c191690851b1786555b8651928311620002615783548481811c9116801562000256575b828210146200024257828111620001fa575b50809183116001146200019357508495829394959262000187575b5050600019600383901b1c191690821b1781555b60065491519233906001600160a01b038416907f8be0079c531659141344cd1fd0a4f28419497f9722a3daafe3b4186f6b6457e09080a3600780549190910190556001600160a81b0319163360ff60a01b191617600160a01b176006556118e19081620003738239f35b01519050388062000109565b90601f198316968487528287209287905b898210620001e2575050838596979810620001c8575b505050811b0181556200011d565b015160001960f88460031b161c19169055388080620001ba565b808785968294968601518155019501930190620001a4565b8487528187208380860160051c82019284871062000238575b0160051c019085905b8281106200022c575050620000ee565b8881550185906200021c565b9250819262000213565b634e487b7160e01b87526022600452602487fd5b90607f1690620000dc565b634e487b7160e01b86526041600452602486fd5b015190503880620000ae565b898052848a208894509190601f1984168b5b87828210620002ce5750508411620002b4575b505050811b018655620000c2565b015160001960f88460031b161c19169055388080620002a6565b8385015186558b9790950194938401930162000293565b9091508880528389208580850160051c8201928686106200032e575b918991869594930160051c01915b8281106200031f57505062000098565b8b81558594508991016200030f565b9250819262000301565b634e487b7160e01b88526022600452602488fd5b93607f169362000081565b634e487b7160e01b600052604160045260246000fd5b600080fdfe6080604081815260048036101561001557600080fd5b600092833560e01c90816301ffc9a714610ffc5750806304dd468614610eb857806306fdde0314610ded578063081812fc14610dcd578063095ea7b314610c6057806323b872dd14610c3657806342842e0e14610c0d57806353bdc5e214610bcd5780636352211e14610b9c5780636a627842146109de57806370a0823114610948578063715018a6146108eb57806375794a3c146108cc57806383361833146108a55780638da5cb5b1461087c57806395d89b4114610775578063a22cb465146106aa578063b1b8a61614610664578063b88d4fde146105db578063bf85dfa4146105b2578063c87b56dd146102a1578063d440deda14610278578063e5b6e4ca14610251578063e985e9c5146101ff5763f2fde38b1461013657600080fd5b346101fb5760203660031901126101fb5761014f6110b0565b906101586111d2565b6001600160a01b039182169283156101a9575050600654826001600160601b0360a01b821617600655167f8be0079c531659141344cd1fd0a4f28419497f9722a3daafe3b4186f6b6457e08380a380f35b906020608492519162461bcd60e51b8352820152602660248201527f4f776e61626c653a206e6577206f776e657220697320746865207a65726f206160448201526564647265737360d01b6064820152fd5b8280fd5b50503461024d578060031936011261024d5760ff8160209361021f6110b0565b6102276110cb565b6001600160a01b0391821683526005875283832091168252855220549151911615158152f35b5080fd5b50503461024d578160031936011261024d5760209060ff60065460a01c1690519015158152f35b50503461024d578160031936011261024d5760095490516001600160a01b039091168152602090f35b50823461051d576020918260031936011261024d5780359060ff60065460a01c16156105a4576000828152600260205260409020546001600160a01b031615610596576008548551635365855b60e01b81526001600160a01b03909116919085818381865afa90811561058c57859161055b575b50838552600a865286852054906080885161032f8161115c565b36903780156105485791859391949288519061034a8261115c565b6080368337895189810190888252878c820152602191818380935261036e81611178565b5190200683528a518a8101898152600160f81b828e0152828252829161039381611178565b51902006838b01528a51808b01898152600160f91b828e015282825282916103ba81611178565b51902006838c01528a518a8101898152600360f81b828e0152828252906103e081611178565b5190200660608301528951968795631d39f12f60e31b87528487015206602485015260448401908886925b84841061052b5750505050508160c4915afa91821561052057809261049d575b50506104396104999161171d565b9261048a603d825180967f646174613a6170706c69636174696f6e2f6a736f6e3b6261736536342c0000008783015261047a81518092898686019101611068565b810103601d810187520185611194565b5192828493845283019061108b565b0390f35b9091503d8082843e6104af8184611194565b820191838184031261024d5780519067ffffffffffffffff82116101fb570182601f8201121561024d578051916104e5836111b6565b936104f287519586611194565b83855285848401011161051d5750916105176104399261049994868085019101611068565b9161042b565b80fd5b8451903d90823e3d90fd5b8251815289975088965060019390930192918101918a910161040b565b634e487b7160e01b865260128352602486fd5b90508581813d8311610585575b6105728183611194565b81010312610581575187610315565b8480fd5b503d610568565b87513d87823e3d90fd5b845163d872946b60e01b8152fd5b8451631afc254f60e31b8152fd5b50503461024d578160031936011261024d5760085490516001600160a01b039091168152602090f35b5090346101fb5760803660031901126101fb576105f66110b0565b6105fe6110cb565b846064359467ffffffffffffffff861161024d573660238701121561024d578501359461063661062d876111b6565b95519586611194565b858552366024878301011161024d57856106619660246020930183880137850101526044359161133c565b80f35b83823461024d57602036600319011261024d573580151580910361024d5761068a6111d2565b6006805460ff60a01b191660a09290921b60ff60a01b1691909117905580f35b5090346101fb57806003193601126101fb576106c46110b0565b9060243591821515809303610581576001600160a01b0316923384146107335750338452600560205280842083855260205280842060ff1981541660ff8416179055519081527f17307eab39ab6107e8899845ad3d59bd9653f200f220920489ca2b5937696c3160203392a380f35b6020606492519162461bcd60e51b8352820152601960248201527f4552433732313a20617070726f766520746f2063616c6c6572000000000000006044820152fd5b50913461051d578060031936011261051d578151918160019283549384811c91818616958615610872575b602096878510811461085f578899509688969785829a5291826000146108385750506001146107dd575b505050610499929161048a910385611194565b91908693508083527fb10e2d527612073b26eecdfd717e6a320cf44b4afac2b0732d9fcbe2b7fa0cf65b828410610820575050508201018161048a6104996107ca565b8054848a018601528895508794909301928101610807565b60ff19168782015293151560051b8601909301935084925061048a915061049990506107ca565b634e487b7160e01b835260228a52602483fd5b92607f16926107a0565b50503461024d578160031936011261024d5760065490516001600160a01b039091168152602090f35b50346101fb5760203660031901126101fb576020928291358152600a845220549051908152f35b50503461024d578160031936011261024d576020906007549051908152f35b833461051d578060031936011261051d576109046111d2565b600680546001600160a01b0319811690915581906001600160a01b03167f8be0079c531659141344cd1fd0a4f28419497f9722a3daafe3b4186f6b6457e08280a380f35b5082903461024d57602036600319011261024d576001600160a01b0361096c6110b0565b169081156109895760208480858581526003845220549051908152f35b608490602085519162461bcd60e51b8352820152602960248201527f4552433732313a2061646472657373207a65726f206973206e6f7420612076616044820152683634b21037bbb732b960b91b6064820152fd5b5090346101fb57602080600319360112610b98576109fa6110b0565b9260ff60065460a01c1615610b8a5760075490600019430190438211610b77578451918483019044825242878501524060608401528360808401523260601b60a08401526094835260c083019183831067ffffffffffffffff841117610b64575081865282519020956001600160a01b0316918215610b23575050600082815260026020526040902054600a93929190610aa0906001600160a01b031615155b156116d1565b600082815260026020526040902054610ac3906001600160a01b03161515610a9a565b80875260038352848720805460010190558187526002835284872080546001600160a01b03191682179055867fddf252ad1be2c89b69c2b068fc378daa952ba7f163c4a11628f55a4df523b3ef8180a45282205560016007540160075580f35b907f4552433732313a206d696e7420746f20746865207a65726f20616464726573736101046064938762461bcd60e51b85528060c483015260e48201520152fd5b634e487b7160e01b895260419052602488fd5b634e487b7160e01b875260119052602486fd5b8251631afc254f60e31b8152fd5b8380fd5b50913461051d57602036600319011261051d5750610bbc60209235611276565b90516001600160a01b039091168152f35b833461051d57602036600319011261051d57610be76110b0565b610bef6111d2565b60018060a01b03166001600160601b0360a01b600854161760085580f35b50503461024d5761066190610c21366110e1565b91925192610c2e84611140565b85845261133c565b833461051d57610661610c48366110e1565b91610c5b610c5684336113d7565b6112da565b61149f565b50346101fb57816003193601126101fb57610c796110b0565b6024359290916001600160a01b0391908280610c9487611276565b16941693808514610d8057803314908115610d61575b5015610cf957848652602052842080546001600160a01b03191683179055610cd183611276565b167f8c5be1e5ebec7d5bd14f71427d1e84f3dd0314c0f7b2291e5b200ac8c7c3b9258480a480f35b6020608492519162461bcd60e51b8352820152603d60248201527f4552433732313a20617070726f76652063616c6c6572206973206e6f7420746f60448201527f6b656e206f776e6572206f7220617070726f76656420666f7220616c6c0000006064820152fd5b90508652600560205281862033875260205260ff828720541638610caa565b506020608492519162461bcd60e51b8352820152602160248201527f4552433732313a20617070726f76616c20746f2063757272656e74206f776e656044820152603960f91b6064820152fd5b50913461051d57602036600319011261051d5750610bbc6020923561129c565b50913461051d578060031936011261051d5781519181825492600184811c91818616958615610eae575b602096878510811461085f578899509688969785829a529182600014610838575050600114610e5357505050610499929161048a910385611194565b91908693508280527f290decd9548b62a8d60345a988386fc84ba6bc95484008f6362f93160ef3e5635b828410610e96575050508201018161048a6104996107ca565b8054848a018601528895508794909301928101610e7d565b92607f1692610e17565b5082903461024d578160031936011261024d57610ed36111d2565b815b818110610ee0578280f35b303b156101fb5783516335313c2160e11b808252738465ef68be5875e252050bcc5e07737654c4d528848301526024918581848183305af18015610fe357610fed575b50303b1561058157855181815273b50382e601ad68723dcf13d3c23020b24608e16d858201528581848183305af18015610fe357610fd4575b50303b156105815784908651928391825273b0cb90a9a3dfd99811858d18f0515475e1c88ade868301528183305af18015610fca57610fbb575b506000198114610fa857600101610ed5565b634e487b7160e01b835260118252602483fd5b610fc490611116565b84610f96565b85513d86823e3d90fd5b610fdd90611116565b86610f5c565b87513d88823e3d90fd5b610ff690611116565b86610f23565b925050346101fb5760203660031901126101fb573563ffffffff60e01b81168091036101fb57602092506380ac58cd60e01b8114908115611057575b8115611046575b5015158152f35b6301ffc9a760e01b1490503861103f565b635b5e139f60e01b81149150611038565b60005b83811061107b5750506000910152565b818101518382015260200161106b565b906020916110a481518092818552858086019101611068565b601f01601f1916010190565b600435906001600160a01b03821682036110c657565b600080fd5b602435906001600160a01b03821682036110c657565b60609060031901126110c6576001600160a01b039060043582811681036110c6579160243590811681036110c6579060443590565b67ffffffffffffffff811161112a57604052565b634e487b7160e01b600052604160045260246000fd5b6020810190811067ffffffffffffffff82111761112a57604052565b6080810190811067ffffffffffffffff82111761112a57604052565b6060810190811067ffffffffffffffff82111761112a57604052565b90601f8019910116810190811067ffffffffffffffff82111761112a57604052565b67ffffffffffffffff811161112a57601f01601f191660200190565b6006546001600160a01b031633036111e657565b606460405162461bcd60e51b815260206004820152602060248201527f4f776e61626c653a2063616c6c6572206973206e6f7420746865206f776e65726044820152fd5b1561123157565b60405162461bcd60e51b815260206004820152601860248201527f4552433732313a20696e76616c696420746f6b656e20494400000000000000006044820152606490fd5b6000908152600260205260409020546001600160a01b031661129981151561122a565b90565b6000818152600260205260409020546112bf906001600160a01b0316151561122a565b6000908152600460205260409020546001600160a01b031690565b156112e157565b60405162461bcd60e51b815260206004820152602d60248201527f4552433732313a2063616c6c6572206973206e6f7420746f6b656e206f776e6560448201526c1c881bdc88185c1c1c9bdd9959609a1b6064820152608490fd5b90611360939291611350610c5684336113d7565b61135b83838361149f565b6115b0565b1561136757565b60405162461bcd60e51b81528061138060048201611384565b0390fd5b60809060208152603260208201527f4552433732313a207472616e7366657220746f206e6f6e20455243373231526560408201527131b2b4bb32b91034b6b83632b6b2b73a32b960711b60608201520190565b906001600160a01b0380806113eb84611276565b1693169183831493841561141e575b508315611408575b50505090565b6114149192935061129c565b1614388080611402565b909350600052600560205260406000208260005260205260ff6040600020541692386113fa565b1561144c57565b60405162461bcd60e51b815260206004820152602560248201527f4552433732313a207472616e736665722066726f6d20696e636f72726563742060448201526437bbb732b960d91b6064820152608490fd5b906114c7916114ad84611276565b6001600160a01b0393918416928492909183168414611445565b1691821561155f57816114e4916114dd86611276565b1614611445565b7fddf252ad1be2c89b69c2b068fc378daa952ba7f163c4a11628f55a4df523b3ef60008481526004602052604081206001600160601b0360a01b9081815416905583825260036020526040822060001981540190558482526040822060018154019055858252600260205284604083209182541617905580a4565b60405162461bcd60e51b8152602060048201526024808201527f4552433732313a207472616e7366657220746f20746865207a65726f206164646044820152637265737360e01b6064820152608490fd5b9293600093909291803b156116c65794849161160a9660405180948193630a85bd0160e11b9788845233600485015260018060a01b0380921660248501526044840152608060648401528260209b8c97608483019061108b565b0393165af1849181611686575b50611675575050503d60001461166d573d611631816111b6565b9061163f6040519283611194565b81528091833d92013e5b8051918261166a5760405162461bcd60e51b81528061138060048201611384565b01fd5b506060611649565b6001600160e01b0319161492509050565b9091508581813d83116116bf575b61169e8183611194565b8101031261058157516001600160e01b031981168103610581579038611617565b503d611694565b505050915050600190565b156116d857565b60405162461bcd60e51b815260206004820152601c60248201527f4552433732313a20746f6b656e20616c7265616479206d696e746564000000006044820152606490fd5b805115611897576040516060810181811067ffffffffffffffff82111761112a57604052604081527f4142434445464748494a4b4c4d4e4f505152535455565758595a61626364656660208201527f6768696a6b6c6d6e6f707172737475767778797a303132333435363738392b2f604082015281516002928382018092116118815760039182900480851b94906001600160fe1b0381160361188157926117dd6117c7866111b6565b956117d56040519788611194565b8087526111b6565b6020860190601f190136823793829183518401925b838110611830575050505051068060011461181d57600214611812575090565b603d90600019015390565b50603d9081600019820153600119015390565b85600491979293949701918251600190603f9082828260121c16880101518453828282600c1c16880101518385015382828260061c16880101518885015316850101518782015301959291906117f2565b634e487b7160e01b600052601160045260246000fd5b506040516118a481611140565b600081529056fea26469706673582212202e38bc174b5bdf489b73da172dcc7427b8e12fc977a5f755d90c53352a45c6aa64736f6c63430008130033",
    "linkReferences": {}
  },
  "methodIdentifiers": {
    "approve(address,uint256)": "095ea7b3",
    "auction_house()": "d440deda",
    "balanceOf(address)": "70a08231",
    "distributeToTeam()": "04dd4686",
    "getApproved(uint256)": "081812fc",
    "isApprovedForAll(address,address)": "e985e9c5",
    "mint(address)": "6a627842",
    "mint_ready()": "e5b6e4ca",
    "name()": "06fdde03",
    "nextTokenId()": "75794a3c",
    "owner()": "8da5cb5b",
    "ownerOf(uint256)": "6352211e",
    "renounceOwnership()": "715018a6",
    "safeTransferFrom(address,address,uint256)": "42842e0e",
    "safeTransferFrom(address,address,uint256,bytes)": "b88d4fde",
    "setApprovalForAll(address,bool)": "a22cb465",
    "setMintReady(bool)": "b1b8a616",
    "setUriBuilder(address)": "53bdc5e2",
    "supportsInterface(bytes4)": "01ffc9a7",
    "symbol()": "95d89b41",
    "tokenURI(uint256)": "c87b56dd",
    "transferFrom(address,address,uint256)": "23b872dd",
    "transferOwnership(address)": "f2fde38b",
    "uri_builder()": "bf85dfa4",
    "uri_seed_hash(uint256)": "83361833"
  },
  "id": 32
}