{
  "abi": [
    {
      "inputs": [],
      "stateMutability": "nonpayable",
      "type": "constructor"
    },
    {
      "inputs": [],
      "name": "MintNotReady",
      "type": "error"
    },
    {
      "inputs": [],
      "name": "NonExistentTokenURI",
      "type": "error"
    },
    {
      "anonymous": false,
      "inputs": [
        {
          "indexed": true,
          "internalType": "address",
          "name": "owner",
          "type": "address"
        },
        {
          "indexed": true,
          "internalType": "address",
          "name": "approved",
          "type": "address"
        },
        {
          "indexed": true,
          "internalType": "uint256",
          "name": "tokenId",
          "type": "uint256"
        }
      ],
      "name": "Approval",
      "type": "event"
    },
    {
      "anonymous": false,
      "inputs": [
        {
          "indexed": true,
          "internalType": "address",
          "name": "owner",
          "type": "address"
        },
        {
          "indexed": true,
          "internalType": "address",
          "name": "operator",
          "type": "address"
        },
        {
          "indexed": false,
          "internalType": "bool",
          "name": "approved",
          "type": "bool"
        }
      ],
      "name": "ApprovalForAll",
      "type": "event"
    },
    {
      "anonymous": false,
      "inputs": [
        {
          "indexed": true,
          "internalType": "address",
          "name": "previousOwner",
          "type": "address"
        },
        {
          "indexed": true,
          "internalType": "address",
          "name": "newOwner",
          "type": "address"
        }
      ],
      "name": "OwnershipTransferred",
      "type": "event"
    },
    {
      "anonymous": false,
      "inputs": [
        {
          "indexed": true,
          "internalType": "address",
          "name": "from",
          "type": "address"
        },
        {
          "indexed": true,
          "internalType": "address",
          "name": "to",
          "type": "address"
        },
        {
          "indexed": true,
          "internalType": "uint256",
          "name": "tokenId",
          "type": "uint256"
        }
      ],
      "name": "Transfer",
      "type": "event"
    },
    {
      "inputs": [
        {
          "internalType": "address",
          "name": "to",
          "type": "address"
        },
        {
          "internalType": "uint256",
          "name": "tokenId",
          "type": "uint256"
        }
      ],
      "name": "approve",
      "outputs": [],
      "stateMutability": "nonpayable",
      "type": "function"
    },
    {
      "inputs": [],
      "name": "auction_house",
      "outputs": [
        {
          "internalType": "contract AuctionHouse",
          "name": "",
          "type": "address"
        }
      ],
      "stateMutability": "view",
      "type": "function"
    },
    {
      "inputs": [
        {
          "internalType": "address",
          "name": "owner",
          "type": "address"
        }
      ],
      "name": "balanceOf",
      "outputs": [
        {
          "internalType": "uint256",
          "name": "",
          "type": "uint256"
        }
      ],
      "stateMutability": "view",
      "type": "function"
    },
    {
      "inputs": [
        {
          "internalType": "uint256",
          "name": "tokenId",
          "type": "uint256"
        }
      ],
      "name": "getApproved",
      "outputs": [
        {
          "internalType": "address",
          "name": "",
          "type": "address"
        }
      ],
      "stateMutability": "view",
      "type": "function"
    },
    {
      "inputs": [
        {
          "internalType": "address",
          "name": "owner",
          "type": "address"
        },
        {
          "internalType": "address",
          "name": "operator",
          "type": "address"
        }
      ],
      "name": "isApprovedForAll",
      "outputs": [
        {
          "internalType": "bool",
          "name": "",
          "type": "bool"
        }
      ],
      "stateMutability": "view",
      "type": "function"
    },
    {
      "inputs": [
        {
          "internalType": "address",
          "name": "to",
          "type": "address"
        }
      ],
      "name": "mint",
      "outputs": [],
      "stateMutability": "nonpayable",
      "type": "function"
    },
    {
      "inputs": [],
      "name": "mint_ready",
      "outputs": [
        {
          "internalType": "bool",
          "name": "",
          "type": "bool"
        }
      ],
      "stateMutability": "view",
      "type": "function"
    },
    {
      "inputs": [],
      "name": "name",
      "outputs": [
        {
          "internalType": "string",
          "name": "",
          "type": "string"
        }
      ],
      "stateMutability": "view",
      "type": "function"
    },
    {
      "inputs": [],
      "name": "nextTokenId",
      "outputs": [
        {
          "internalType": "uint256",
          "name": "_value",
          "type": "uint256"
        }
      ],
      "stateMutability": "view",
      "type": "function"
    },
    {
      "inputs": [],
      "name": "owner",
      "outputs": [
        {
          "internalType": "address",
          "name": "",
          "type": "address"
        }
      ],
      "stateMutability": "view",
      "type": "function"
    },
    {
      "inputs": [
        {
          "internalType": "uint256",
          "name": "tokenId",
          "type": "uint256"
        }
      ],
      "name": "ownerOf",
      "outputs": [
        {
          "internalType": "address",
          "name": "",
          "type": "address"
        }
      ],
      "stateMutability": "view",
      "type": "function"
    },
    {
      "inputs": [],
      "name": "renounceOwnership",
      "outputs": [],
      "stateMutability": "nonpayable",
      "type": "function"
    },
    {
      "inputs": [
        {
          "internalType": "address",
          "name": "from",
          "type": "address"
        },
        {
          "internalType": "address",
          "name": "to",
          "type": "address"
        },
        {
          "internalType": "uint256",
          "name": "tokenId",
          "type": "uint256"
        }
      ],
      "name": "safeTransferFrom",
      "outputs": [],
      "stateMutability": "nonpayable",
      "type": "function"
    },
    {
      "inputs": [
        {
          "internalType": "address",
          "name": "from",
          "type": "address"
        },
        {
          "internalType": "address",
          "name": "to",
          "type": "address"
        },
        {
          "internalType": "uint256",
          "name": "tokenId",
          "type": "uint256"
        },
        {
          "internalType": "bytes",
          "name": "data",
          "type": "bytes"
        }
      ],
      "name": "safeTransferFrom",
      "outputs": [],
      "stateMutability": "nonpayable",
      "type": "function"
    },
    {
      "inputs": [
        {
          "internalType": "address",
          "name": "operator",
          "type": "address"
        },
        {
          "internalType": "bool",
          "name": "approved",
          "type": "bool"
        }
      ],
      "name": "setApprovalForAll",
      "outputs": [],
      "stateMutability": "nonpayable",
      "type": "function"
    },
    {
      "inputs": [
        {
          "internalType": "bool",
          "name": "_mint_ready",
          "type": "bool"
        }
      ],
      "name": "setMintReady",
      "outputs": [],
      "stateMutability": "nonpayable",
      "type": "function"
    },
    {
      "inputs": [
        {
          "internalType": "bytes4",
          "name": "interfaceId",
          "type": "bytes4"
        }
      ],
      "name": "supportsInterface",
      "outputs": [
        {
          "internalType": "bool",
          "name": "",
          "type": "bool"
        }
      ],
      "stateMutability": "view",
      "type": "function"
    },
    {
      "inputs": [],
      "name": "symbol",
      "outputs": [
        {
          "internalType": "string",
          "name": "",
          "type": "string"
        }
      ],
      "stateMutability": "view",
      "type": "function"
    },
    {
      "inputs": [
        {
          "internalType": "uint256",
          "name": "token_id",
          "type": "uint256"
        }
      ],
      "name": "tokenURI",
      "outputs": [
        {
          "internalType": "string",
          "name": "",
          "type": "string"
        }
      ],
      "stateMutability": "view",
      "type": "function"
    },
    {
      "inputs": [
        {
          "internalType": "address",
          "name": "from",
          "type": "address"
        },
        {
          "internalType": "address",
          "name": "to",
          "type": "address"
        },
        {
          "internalType": "uint256",
          "name": "tokenId",
          "type": "uint256"
        }
      ],
      "name": "transferFrom",
      "outputs": [],
      "stateMutability": "nonpayable",
      "type": "function"
    },
    {
      "inputs": [
        {
          "internalType": "address",
          "name": "newOwner",
          "type": "address"
        }
      ],
      "name": "transferOwnership",
      "outputs": [],
      "stateMutability": "nonpayable",
      "type": "function"
    },
    {
      "inputs": [],
      "name": "uri_builder",
      "outputs": [
        {
          "internalType": "contract URIBuilder",
          "name": "",
          "type": "address"
        }
      ],
      "stateMutability": "view",
      "type": "function"
    },
    {
      "inputs": [
        {
          "internalType": "uint256",
          "name": "",
          "type": "uint256"
        }
      ],
      "name": "uri_seed_hash",
      "outputs": [
        {
          "internalType": "bytes32",
          "name": "",
          "type": "bytes32"
        }
      ],
      "stateMutability": "view",
      "type": "function"
    }
  ],
  "bytecode": {
    "object": "0x60803462000400576040906001600160401b039080830182811182821017620003ea578352600b81526020906a4574684d6f6e737465727360a81b8282015283519184830183811085821117620003ea5785526003835262454d5360e81b818401528151848111620003ea576000938454916001948584811c94168015620003df575b85851014620002e9578190601f948581116200038c575b508590858311600114620003285788926200031c575b5050600019600383901b1c191690851b1785555b805192868411620003085784548581811c91168015620002fd575b82821014620002e957908184869594931162000292575b50809284116001146200022a575085926200021e575b5050600019600383901b1c191690821b1790555b600680546001600160a01b031980821633908117909355855190946001600160a01b039493909285167f8be0079c531659141344cd1fd0a4f28419497f9722a3daafe3b4186f6b6457e08580a361146e80820190828210848311176200020a57908291620019488339039083f080156200020057831684600854161760085584519060538083019183831090831117620001ec57908291620018f58339039082f0908115620001e1575016906009541617600955516114ef9081620004068239f35b8451903d90823e3d90fd5b634e487b7160e01b84526041600452602484fd5b85513d84823e3d90fd5b634e487b7160e01b85526041600452602485fd5b0151905038806200010b565b9190859450601f1984168588528388209388905b8282106200027857505084116200025e575b505050811b0190556200011f565b015160001960f88460031b161c1916905538808062000250565b84840151865588979095019493840193908101906200023e565b90919293508587528187208480870160051c820192848810620002df575b9187968992969594930160051c01915b828110620002d0575050620000f5565b898155879650889101620002c0565b92508192620002b0565b634e487b7160e01b87526022600452602487fd5b90607f1690620000de565b634e487b7160e01b86526041600452602486fd5b015190503880620000af565b8880528689208894509190601f1984168a5b898282106200037557505084116200035b575b505050811b018555620000c3565b015160001960f88460031b161c191690553880806200034d565b8385015186558b979095019493840193016200033a565b9091508780528588208580850160051c820192888610620003d5575b918991869594930160051c01915b828110620003c657505062000099565b8a8155859450899101620003b6565b92508192620003a8565b93607f169362000082565b634e487b7160e01b600052604160045260246000fd5b600080fdfe6080604081815260048036101561001557600080fd5b600092833560e01c90816301ffc9a714610dc35750806306fdde0314610cf8578063081812fc14610cd8578063095ea7b314610b6b57806323b872dd14610b4157806342842e0e14610af25780636352211e14610ac15780636a6278421461091557806370a082311461087f578063715018a61461082257806375794a3c1461080357806383361833146107dc5780638da5cb5b146107b357806395d89b411461069d578063a22cb465146105ce578063b1b8a61614610588578063b88d4fde146104ff578063bf85dfa4146104d6578063c87b56dd14610290578063d440deda14610267578063e5b6e4ca14610240578063e985e9c5146101ee5763f2fde38b1461012057600080fd5b346101ea5760203660031901126101ea57610139610e77565b90610142610f69565b6001600160a01b03918216928315610198575050600654826bffffffffffffffffffffffff60a01b821617600655167f8be0079c531659141344cd1fd0a4f28419497f9722a3daafe3b4186f6b6457e08380a380f35b906020608492519162461bcd60e51b8352820152602660248201527f4f776e61626c653a206e6577206f776e657220697320746865207a65726f206160448201526564647265737360d01b6064820152fd5b8280fd5b50503461023c578060031936011261023c5760ff8160209361020e610e77565b610216610e92565b6001600160a01b0391821683526005875283832091168252855220549151911615158152f35b5080fd5b50503461023c578160031936011261023c5760209060ff60065460a01c1690519015158152f35b50503461023c578160031936011261023c5760095490516001600160a01b039091168152602090f35b5090346101ea57602091826003193601126104d25780359060ff60065460a01c16156104c4576000828152600260205260409020546001600160a01b0316156104b657908085918252600a85528382205492608085516102ef81610edd565b3690378451906102fe82610edd565b6080368337606486518881019087825286898201526021815261032081610f0f565b5190200682528551878101868152600160f81b828901526021825260649161034781610f0f565b51902006828801528551808801868152600160f91b828901526021825260649161037081610f0f565b51902006828701528551878101868152600360f81b828901526021825260649161039981610f0f565b51902006606083015260018060a01b03600854169160978751968795631d39f12f60e31b87528487015206602485015260448401908886925b8484106104995750505050508160c4915afa93841561048e57809461040b575b50506104079051928284938452830190610e52565b0390f35b909193503d8082843e61041e8184610f2b565b820191838184031261023c5780519067ffffffffffffffff82116101ea570182601f8201121561023c5780519161045483610f4d565b9361046187519586610f2b565b83855285848401011161048b5750829161048391858061040796019101610e2f565b9290386103f2565b80fd5b8251903d90823e3d90fd5b825181528b975088965060019390930192918101918a91016103d2565b825163d872946b60e01b8152fd5b8251631afc254f60e31b8152fd5b8380fd5b50503461023c578160031936011261023c5760085490516001600160a01b039091168152602090f35b5090346101ea5760803660031901126101ea5761051a610e77565b610522610e92565b846064359467ffffffffffffffff861161023c573660238701121561023c578501359461055a61055187610f4d565b95519586610f2b565b858552366024878301011161023c5785610585966024602093018388013785010152604435916110d3565b80f35b83823461023c57602036600319011261023c573580151580910361023c576105ae610f69565b6006805460ff60a01b191660a09290921b60ff60a01b1691909117905580f35b5090346101ea57806003193601126101ea576105e8610e77565b9060243591821515809303610699576001600160a01b0316923384146106575750338452600560205280842083855260205280842060ff1981541660ff8416179055519081527f17307eab39ab6107e8899845ad3d59bd9653f200f220920489ca2b5937696c3160203392a380f35b6020606492519162461bcd60e51b8352820152601960248201527f4552433732313a20617070726f766520746f2063616c6c6572000000000000006044820152fd5b8480fd5b50913461048b578060031936011261048b578151918160019283549384811c918186169586156107a9575b6020968785108114610796578899509688969785829a52918260001461076f575050600114610714575b5050506104079291610705910385610f2b565b51928284938452830190610e52565b91908693508083527fb10e2d527612073b26eecdfd717e6a320cf44b4afac2b0732d9fcbe2b7fa0cf65b82841061075757505050820101816107056104076106f2565b8054848a01860152889550879490930192810161073e565b60ff19168782015293151560051b86019093019350849250610705915061040790506106f2565b634e487b7160e01b835260228a52602483fd5b92607f16926106c8565b50503461023c578160031936011261023c5760065490516001600160a01b039091168152602090f35b50346101ea5760203660031901126101ea576020928291358152600a845220549051908152f35b50503461023c578160031936011261023c576020906007549051908152f35b833461048b578060031936011261048b5761083b610f69565b600680546001600160a01b0319811690915581906001600160a01b03167f8be0079c531659141344cd1fd0a4f28419497f9722a3daafe3b4186f6b6457e08280a380f35b5082903461023c57602036600319011261023c576001600160a01b036108a3610e77565b169081156108c05760208480858581526003845220549051908152f35b608490602085519162461bcd60e51b8352820152602960248201527f4552433732313a2061646472657373207a65726f206973206e6f7420612076616044820152683634b21037bbb732b960b91b6064820152fd5b5090346101ea576020806003193601126104d257610931610e77565b9260ff60065460a01c16156104c45760075490600019430190438211610aae578451918483019044825242878501524060608401528360808401523260601b60a08401526094835260c083019183831067ffffffffffffffff841117610a9b575081865282519020956001600160a01b0316918215610a5a575050600082815260026020526040902054600a939291906109d7906001600160a01b031615155b1561146d565b6000828152600260205260409020546109fa906001600160a01b031615156109d1565b80875260038352848720805460010190558187526002835284872080546001600160a01b03191682179055867fddf252ad1be2c89b69c2b068fc378daa952ba7f163c4a11628f55a4df523b3ef8180a45282205560016007540160075580f35b907f4552433732313a206d696e7420746f20746865207a65726f20616464726573736101046064938762461bcd60e51b85528060c483015260e48201520152fd5b634e487b7160e01b895260419052602488fd5b634e487b7160e01b875260119052602486fd5b50913461048b57602036600319011261048b5750610ae16020923561100d565b90516001600160a01b039091168152f35b5091903461023c57610b0336610ea8565b91835193602085019085821067ffffffffffffffff831117610b2e57610585969750528584526110d3565b634e487b7160e01b875260418852602487fd5b833461048b57610585610b5336610ea8565b91610b66610b61843361116e565b611071565b611236565b50346101ea57816003193601126101ea57610b84610e77565b6024359290916001600160a01b0391908280610b9f8761100d565b16941693808514610c8b57803314908115610c6c575b5015610c0457848652602052842080546001600160a01b03191683179055610bdc8361100d565b167f8c5be1e5ebec7d5bd14f71427d1e84f3dd0314c0f7b2291e5b200ac8c7c3b9258480a480f35b6020608492519162461bcd60e51b8352820152603d60248201527f4552433732313a20617070726f76652063616c6c6572206973206e6f7420746f60448201527f6b656e206f776e6572206f7220617070726f76656420666f7220616c6c0000006064820152fd5b90508652600560205281862033875260205260ff828720541638610bb5565b506020608492519162461bcd60e51b8352820152602160248201527f4552433732313a20617070726f76616c20746f2063757272656e74206f776e656044820152603960f91b6064820152fd5b50913461048b57602036600319011261048b5750610ae160209235611033565b50913461048b578060031936011261048b5781519181825492600184811c91818616958615610db9575b6020968785108114610796578899509688969785829a52918260001461076f575050600114610d5e575050506104079291610705910385610f2b565b91908693508280527f290decd9548b62a8d60345a988386fc84ba6bc95484008f6362f93160ef3e5635b828410610da157505050820101816107056104076106f2565b8054848a018601528895508794909301928101610d88565b92607f1692610d22565b925050346101ea5760203660031901126101ea573563ffffffff60e01b81168091036101ea57602092506380ac58cd60e01b8114908115610e1e575b8115610e0d575b5015158152f35b6301ffc9a760e01b14905038610e06565b635b5e139f60e01b81149150610dff565b60005b838110610e425750506000910152565b8181015183820152602001610e32565b90602091610e6b81518092818552858086019101610e2f565b601f01601f1916010190565b600435906001600160a01b0382168203610e8d57565b600080fd5b602435906001600160a01b0382168203610e8d57565b6060906003190112610e8d576001600160a01b03906004358281168103610e8d57916024359081168103610e8d579060443590565b6080810190811067ffffffffffffffff821117610ef957604052565b634e487b7160e01b600052604160045260246000fd5b6060810190811067ffffffffffffffff821117610ef957604052565b90601f8019910116810190811067ffffffffffffffff821117610ef957604052565b67ffffffffffffffff8111610ef957601f01601f191660200190565b6006546001600160a01b03163303610f7d57565b606460405162461bcd60e51b815260206004820152602060248201527f4f776e61626c653a2063616c6c6572206973206e6f7420746865206f776e65726044820152fd5b15610fc857565b60405162461bcd60e51b815260206004820152601860248201527f4552433732313a20696e76616c696420746f6b656e20494400000000000000006044820152606490fd5b6000908152600260205260409020546001600160a01b0316611030811515610fc1565b90565b600081815260026020526040902054611056906001600160a01b03161515610fc1565b6000908152600460205260409020546001600160a01b031690565b1561107857565b60405162461bcd60e51b815260206004820152602d60248201527f4552433732313a2063616c6c6572206973206e6f7420746f6b656e206f776e6560448201526c1c881bdc88185c1c1c9bdd9959609a1b6064820152608490fd5b906110f79392916110e7610b61843361116e565b6110f2838383611236565b61134c565b156110fe57565b60405162461bcd60e51b8152806111176004820161111b565b0390fd5b60809060208152603260208201527f4552433732313a207472616e7366657220746f206e6f6e20455243373231526560408201527131b2b4bb32b91034b6b83632b6b2b73a32b960711b60608201520190565b906001600160a01b0380806111828461100d565b169316918383149384156111b5575b50831561119f575b50505090565b6111ab91929350611033565b1614388080611199565b909350600052600560205260406000208260005260205260ff604060002054169238611191565b156111e357565b60405162461bcd60e51b815260206004820152602560248201527f4552433732313a207472616e736665722066726f6d20696e636f72726563742060448201526437bbb732b960d91b6064820152608490fd5b9061125e916112448461100d565b6001600160a01b03939184169284929091831684146111dc565b169182156112fb578161127b916112748661100d565b16146111dc565b7fddf252ad1be2c89b69c2b068fc378daa952ba7f163c4a11628f55a4df523b3ef60008481526004602052604081206bffffffffffffffffffffffff60a01b9081815416905583825260036020526040822060001981540190558482526040822060018154019055858252600260205284604083209182541617905580a4565b60405162461bcd60e51b8152602060048201526024808201527f4552433732313a207472616e7366657220746f20746865207a65726f206164646044820152637265737360e01b6064820152608490fd5b9293600093909291803b15611462579484916113a69660405180948193630a85bd0160e11b9788845233600485015260018060a01b0380921660248501526044840152608060648401528260209b8c976084830190610e52565b0393165af1849181611422575b50611411575050503d600014611409573d6113cd81610f4d565b906113db6040519283610f2b565b81528091833d92013e5b805191826114065760405162461bcd60e51b8152806111176004820161111b565b01fd5b5060606113e5565b6001600160e01b0319161492509050565b9091508581813d831161145b575b61143a8183610f2b565b8101031261069957516001600160e01b0319811681036106995790386113b3565b503d611430565b505050915050600190565b1561147457565b60405162461bcd60e51b815260206004820152601c60248201527f4552433732313a20746f6b656e20616c7265616479206d696e746564000000006044820152606490fdfea26469706673582212208f4c08efa6067d3fcbb4216dfa3915f9cb72053bfa7061fb3e43a65dd92e6de264736f6c6343000813003360808060405234601357603a908160198239f35b600080fdfe600080fdfea2646970667358221220d070bfd9e05543d4dd00ddaa540b08eda6e3de61f664349bdaff9ca2f310778c64736f6c634300081300336080806040523461005b5760008054336001600160a01b0319821681178355916001600160a01b03909116907f8be0079c531659141344cd1fd0a4f28419497f9722a3daafe3b4186f6b6457e09080a361140d90816100618239f35b600080fdfe6080604052600436101561001257600080fd5b60003560e01c80631ae8d52c14610e7d578063715018a614610e2457806375954aa314610df85780638da5cb5b14610dcf578063958c134d14610cb4578063cd99ec3114610bdf578063e9cf897814610675578063f2fde38b146105aa5763fe6445031461007f57600080fd5b346105a5576003196040368201126105a557602435906001600160401b0382116105a5576101209082360301126105a557604051906100bd82610f97565b80600401356001600160401b0381116105a5576100e09060043691840101611114565b825260248101356001600160401b0381116105a5576101059060043691840101611114565b602083015261011660448201611132565b604083015261012760648201611132565b606083015260848101356001600160401b0381116105a55761014f9060043691840101611114565b608083015261016060a48201611132565b60a083015260c48101356001600160401b0381116105a5576101ab9161018f6101049260043691840101611114565b60c08501526101a060e48201611132565b60e085015201611132565b6101008201526101b9611140565b6004356000526003602052604060002081519182516001600160401b038111610434576101f0816101ea8554610f5d565b85611198565b6020601f821160011461053f5781929394600092610534575b50508160011b916000199060031b1c19161782555b60208101519182516001600160401b0381116104345761024e816102456001850154610f5d565b60018501611198565b6020601f82116001146104c657819293946000926104bb575b50508160011b916000199060031b1c19161760018201555b60028101906102b860ff6040850151169260ff19938482541617815560ff60608601511661ff0082549160081b169061ff001916179055565b6003810160808401518051906001600160401b0382116104345781906102e8826102e28654610f5d565b86611198565b602090601f83116001146104555760009261044a575b50508160011b916000199060031b1c19161790555b6004810160ff60a085015116838254161790556005810160c08401518051906001600160401b0382116104345761034e826101ea8554610f5d565b602090601f83116001146103bf579361010093836103b2989460069460ff986000926103b4575b50508160011b916000199060031b1c19161790555b01938360e0830151169085541617845501511661ff0082549160081b169061ff001916179055565b005b015190503880610375565b90601f198316918460005260206000209260005b81811061041c57508460069460ff989461010098946103b29c9860019510610403575b505050811b01905561038a565b015160001960f88460031b161c191690553880806103f6565b929360206001819287860151815501950193016103d3565b634e487b7160e01b600052604160045260246000fd5b0151905038806102fe565b6000858152602081209350601f198516905b8181106104a3575090846001959493921061048a575b505050811b019055610313565b015160001960f88460031b161c1916905538808061047d565b92936020600181928786015181550195019301610467565b015190503880610267565b6001830160005260206000209060005b601f198416811061051c5750600193949583601f19811610610503575b505050811b01600182015561027f565b015160001960f88460031b161c191690553880806104f3565b9091602060018192858a0151815501930191016104d6565b015190503880610209565b601f198216908460005260206000209160005b81811061058d57509583600195969710610574575b505050811b01825561021e565b015160001960f88460031b161c19169055388080610567565b9192602060018192868b015181550194019201610552565b600080fd5b346105a55760203660031901126105a5576004356001600160a01b03818116918290036105a5576105d9611140565b811561062157600054826bffffffffffffffffffffffff60a01b821617600055167f8be0079c531659141344cd1fd0a4f28419497f9722a3daafe3b4186f6b6457e0600080a3005b60405162461bcd60e51b815260206004820152602660248201527f4f776e61626c653a206e6577206f776e657220697320746865207a65726f206160448201526564647265737360d01b6064820152608490fd5b346105a55760c03660031901126105a55760243536606312156105a55760405190608082018281106001600160401b038211176104345760405260c4823682116105a5576044905b828210610bcf578461071f6107c76012878060005260026020526107a06040600020916106eb60043561126f565b906000526001602052604a604060002091604051978895693d913730b6b2911d101160b11b6020880152602a8701906111ec565b61202360f01b815261073b82518093602060028501910161107a565b017f222c226465736372697074696f6e223a2022416e2045746865726d6f6e204e4660028201527f54222c2022696d616765223a2022646174613a696d6167652f7376672b786d6c6022820152670ed8985cd94d8d0b60c21b604282015201906111ec565b71222c202261747472696275746573223a205b60701b815203600d19810184520182610fb3565b60005b60048110610826576108228261080e6022604051836107f382955180926020808601910161107a565b8101615d7d60f01b6020820152036002810184520182610fb3565b60405191829160208352602083019061109d565b0390f35b8060051b83015160005260036020526040600020916040519261084884610f97565b61085181610fd4565b845261085f60018201610fd4565b6020850152600281015460ff8116604086015260081c60ff1660608501526003810161088a90610fd4565b6080850152600481015460ff1660a08501526108a860058201610fd4565b60c08501526006015460ff811660e085015260081c60ff16610100840152602083015190835193604081015160ff166108e09061126f565b91606082015160ff166108f29061126f565b9060808301519060a084015160ff1661090a9061126f565b60c08501519260e086015160ff166109219061126f565b95610100015160ff166109339061126f565b966040519a8b998551958660208d0191602001916109509261107a565b607b60f81b60208c8801818101929092526e113a3930b4ba2fba3cb832911d101160891b6021830152825160309890939092610992928592918b01910161107a565b8b0101946201116160ed1b9586809282015269113b30b63ab2911d101160b11b6033820152825190603d938285830191602001916109cf9261107a565b0191820152690113230b6b0b3b2911d160b51b60408201528151916109fd908390604a84019060200161107a565b01908361016160f51b96878481604a819701526b01136b0b730a1b7b9ba111d160a51b604c820152825190605893828583019160200191610a3d9261107a565b01918201526c11313ab3332a3cb832911d101160991b605a820152825190606793828583019160200191610a709261107a565b01918201526d011313ab33320b6b7bab73a111d160951b606a820152825190607893828583019160200191610aa49261107a565b01918201526e113232b13ab3332a3cb832911d101160891b607a820152825190608993828583019160200191610ad99261107a565b01918201526f0113232b13ab33320b6b7bab73a111d160851b608c820152825190609c93828583019160200191610b0f9261107a565b0191820152670113432b0b6111d160c51b609e82015281519060a692828483019160200191610b3d9261107a565b01908101607d60f81b90520360878101835260a701610b5c9083610fb3565b8160038203610b8e575b506000198114610b78576001016107ca565b634e487b7160e01b600052601160045260246000fd5b909150610bc8602160405183610bae82955180926020808601910161107a565b8101600b60fa1b6020820152036001810184520182610fb3565b9083610b66565b81358152602091820191016106bd565b346105a5576020806003193601126105a55760043560005260019081815260406000206040518093600090835493610c1685610f5d565b94858552868382169182600014610c92575050600114610c53575b5050610c3f92500383610fb3565b61082260405192828493845283019061109d565b85925060005281600020906000915b858310610c7a575050610c3f93508201018580610c31565b80548389018501528794508693909201918101610c62565b9250935050610c3f94915060ff191682840152151560051b8201018580610c31565b346105a55760403660031901126105a5576001600160401b036024358181116105a557366023820112156105a557610cf69036906024816004013591016110dd565b90610cff611140565b6004356000526001906020828152604060002093805192831161043457610d3083610d2a8754610f5d565b87611198565b81601f8411600114610d6c5750928293918392600094610d61575b50501b916000199060031b1c1916179055600080f35b015192508580610d4b565b919083601f1981168760005284600020946000905b88838310610db55750505010610d9c575b505050811b019055005b015160001960f88460031b161c19169055838080610d92565b858701518855909601959485019487935090810190610d81565b346105a55760003660031901126105a5576000546040516001600160a01b039091168152602090f35b346105a55760203660031901126105a557600435600052600260205261082261080e6040600020610fd4565b346105a55760003660031901126105a557610e3d611140565b600080546001600160a01b0319811682556001600160a01b03167f8be0079c531659141344cd1fd0a4f28419497f9722a3daafe3b4186f6b6457e08280a3005b346105a55760203660031901126105a5576004356000526003602052610f066040600020610eaa81610fd4565b9060ff610f46610ebc60018401610fd4565b92600281015490610f33610ed260038301610fd4565b92856004840154169386610f146006610eed60058801610fd4565b960154996040519c8d9c8d61012090818152019061109d565b8c810360208e01529061109d565b9281811660408c015260081c1660608a015288820360808a015261109d565b9160a087015285820360c087015261109d565b9181811660e085015260081c166101008301520390f35b90600182811c92168015610f8d575b6020831014610f7757565b634e487b7160e01b600052602260045260246000fd5b91607f1691610f6c565b61012081019081106001600160401b0382111761043457604052565b90601f801991011681019081106001600160401b0382111761043457604052565b9060405191826000825492610fe884610f5d565b9081845260019485811690816000146110575750600114611014575b505061101292500383610fb3565b565b9093915060005260209081600020936000915b81831061103f57505061101293508201013880611004565b85548884018501529485019487945091830191611027565b91505061101294506020925060ff191682840152151560051b8201013880611004565b60005b83811061108d5750506000910152565b818101518382015260200161107d565b906020916110b68151809281855285808601910161107a565b601f01601f1916010190565b6001600160401b03811161043457601f01601f191660200190565b9291926110e9826110c2565b916110f76040519384610fb3565b8294818452818301116105a5578281602093846000960137010152565b9080601f830112156105a55781602061112f933591016110dd565b90565b359060ff821682036105a557565b6000546001600160a01b0316330361115457565b606460405162461bcd60e51b815260206004820152602060248201527f4f776e61626c653a2063616c6c6572206973206e6f7420746865206f776e65726044820152fd5b90601f81116111a657505050565b600091825260208220906020601f850160051c830194106111e2575b601f0160051c01915b8281106111d757505050565b8181556001016111cb565b90925082906111c2565b6000929181546111fb81610f5d565b926001918083169081156112545750600114611218575b50505050565b90919293945060005260209081600020906000915b8583106112435750505050019038808080611212565b80548584015291830191810161122d565b60ff1916845250505081151590910201915038808080611212565b806000917a184f03e93ff9f4daa797ed6e38ed64bf6a1f010000000000000000808210156113c9575b506d04ee2d6d415b85acef8100000000808310156113ba575b50662386f26fc10000808310156113ab575b506305f5e1008083101561139c575b506127108083101561138d575b50606482101561137d575b600a80921015611373575b60019081602181860195611308876110c2565b966113166040519889610fb3565b808852611325601f19916110c2565b01366020890137860101905b61133d575b5050505090565b600019019083906f181899199a1a9b1b9c1cb0b131b232b360811b8282061a83530491821561136e57919082611331565b611336565b91600101916112f5565b91906064600291049101916112ea565b600491939204910191386112df565b600891939204910191386112d2565b601091939204910191386112c3565b602091939204910191386112b1565b60409350810491503861129856fea264697066735822122022c364d12a1df6ad20199d08f843237380ba1fb36b0578dc32c286be101362f164736f6c63430008130033",
    "linkReferences": {}
  },
  "methodIdentifiers": {
    "approve(address,uint256)": "095ea7b3",
    "auction_house()": "d440deda",
    "balanceOf(address)": "70a08231",
    "getApproved(uint256)": "081812fc",
    "isApprovedForAll(address,address)": "e985e9c5",
    "mint(address)": "6a627842",
    "mint_ready()": "e5b6e4ca",
    "name()": "06fdde03",
    "nextTokenId()": "75794a3c",
    "owner()": "8da5cb5b",
    "ownerOf(uint256)": "6352211e",
    "renounceOwnership()": "715018a6",
    "safeTransferFrom(address,address,uint256)": "42842e0e",
    "safeTransferFrom(address,address,uint256,bytes)": "b88d4fde",
    "setApprovalForAll(address,bool)": "a22cb465",
    "setMintReady(bool)": "b1b8a616",
    "supportsInterface(bytes4)": "01ffc9a7",
    "symbol()": "95d89b41",
    "tokenURI(uint256)": "c87b56dd",
    "transferFrom(address,address,uint256)": "23b872dd",
    "transferOwnership(address)": "f2fde38b",
    "uri_builder()": "bf85dfa4",
    "uri_seed_hash(uint256)": "83361833"
  },
  "id": 32
}